:020000020000FC
:1018000000E60DBF04E00EBF8CD04AEFA0D04A9591
:10181000E9F7503C08F090C002E0CDD041E1450F1F
:1018200096D04517E8F7552EA89AACE0B0E0AED0B8
:101830000030E9F30E93A830D1F7890C86949A0C06
:101840009694AB0CA694BB24B094772741D0642F18
:10185000403818F06F773CD0742FE0E0F1E00024BE
:101860001124882799278617970780F4019630D08E
:10187000419307FA000C00F804261024482F477003
:1018800091F726D0141679F30CE495D021D00416E4
:1018900011F00CE290D01CD0141611F00CE18BD09A
:1018A000E0E0F0E0C0E0D1E040E00990199001E014
:1018B00007BFE8953296E617F70728F443954032BC
:1018C000A0F31BD0F2CF403009F017D00BE073D05B
:1018D0000F931F933F9334E059D00030E9F3440F46
:1018E000440FA8E01D911017E8F3A9504A0F3A954C
:1018F00099F73F911F910F910895EF93FF933297BE
:10190000E07403E007BFE89507B70170E9F705E069
:1019100007BFE89507B70170E9F74427FF91EF91FA
:101920000895DD27C7E201E40883C6E203EE0883D9
:10193000A99AA29AAA9A0895C7E200E00883C6E28B
:1019400000E00883A998AA98EE27FF2709940F932F
:101950001F932F932CE04FD0022D132D220C331CFC
:10196000200E311EC4E20881C5E21881200E311E0E
:101970003694279436942794522D032D0695579527
:10198000069557952F911F910F910895E0DFA89B21
:1019900008C0551668F05D5F551558F4A898052DD8
:1019A0000895551528F05350551518F0A89A01C000
:1019B000552E00E00895A09A0F934F93402F477043
:1019C00038E2000F08F03AE0A89A0ED0A89839E162
:1019D0000BD04A95A9F74F910F9103FB16F0A098F1
:1019E000089536E401D0E7CF2F9324E604D0315098
:1019F000E1F72F9108951F9314E100001A95E9F77C
:081A00002A95D1F71F9108950A
:00000001FF
